:0400000080313B28E8
:100008007E14803100308600003087008B1E0D285A
:100018000E2816280B1D1128122816288531892527
:10002800803139280B1F19281A2839282100111E58
:100038001E281F282A282000111E232824282A28A1
:100048003B088A003A080A00803139282100911EAD
:100058002E282F2839282000911E332834283928A3
:1000680039088A0038080A0080317E10090080317A
:100078003D2886313D268031EF00FD012030840087
:100088000030850041308531DC258031A030840086
:100098000030850010308531DC2580317E1020004D
:1000A8008431F62C20005303031D5B285C2851295A
:1000B8005108031D6028612851290830CC005129B6
:1000C8008531CB258031003A03196B286C287929B2
:1000D800143085319925803101302000D30001305A
:1000E800CC0079298531CB258031003A03197D2848
:1000F8007E287929853176258031013A031D8528A6
:1001080086288A2802302000CC007929083020006F
:10011800CC0079298531CB258031003A03199528FF
:1001280096287929843160248031553A031D9D2809
:100138009E288A2803302000CC0079298531CB25D8
:100148008031003A0319A928AA2879298431602422
:1001580080312000D40054088431DC248031003AF6
:10016800031DB728B828B9288A28F001F00A20000A
:1001780054088231642280312000DE005E03031DB2
:10018800C628C728D2280230F000540882316422D9
:1001980080312000DF000430CC0079298631152613
:1001A800803106302000CC0079298531CB2580317B
:1001B800003A0319E028E128792984316024803144
:1001C8002000EA005530EB000030EC004B086B07CC
:1001D800ED0000306C3DEE006D0886006E0887006B
:1001E8006A0881000130CB075F084B02031CFD2819
:1001F800FE287929CB010530CC0079298531CB251A
:100208008031003A031909290A297929843160249F
:1002180080312000DD005408F0005530F100003036
:10022800F2005F0883319123803120005D060319B5
:100238001E291F2920298A280730CC00792954082B
:1002480082310022803107302000CC0041088A002A
:1002580040080A0081312000D001D101CB01D3012F
:100268005430F0000030F1000030F200F3000D309F
:10027800F4000030F50085310E25803123009E1CE6
:10028800462947294D298631102680312000CC0186
:10029800792909302000CC0079294C08EA00EB01C3
:1002A8006B08003A0319592979296A08003A031991
:1002B8006428013A03197628033A03198E28013A6B
:1002C8000319A228073A0319D928013A0319022960
:1002D800033A03192329013A03192A290F3A031962
:1002E8002F29013A0319422979290800F1007108D8
:1002F800F200F21880298229013083290030F000A9
:1003080072188729892901308A2900307006031D4F
:100318008E29902972179129721372199429962996
:10032800013097290030F000721B9B299D2901306C
:100338009E2900307006031DA229A4297217A52939
:100348007213721AA829AA290130AB290030F000CB
:10035800721BAF29B1290130B22900307006031D84
:10036800B629B8297217B9297213F219BC29BE29FE
:100378000130BF290030F000F218C329C529013027
:10038800C62900307006031DCA29CC29F217CD29C9
:10039800F213721AD029D2290130D3290030F00083
:1003A800F21BD729D9290130DA2900307006031D3C
:1003B800DE29E029F217E129F213F21AE429E629E5
:1003C8000130E7290030F000F21BEB29ED2901305C
:1003D800EE2900307006031DF229F429F217F529D9
:1003E800F2130310F21F03140318FB29FD29F21757
:1003F800FE29F213720808002000E6003F08E90011
:100408003E08E8003F30E605E7011B2A680884003B
:100418006908850000086606031D132A142A152A90
:10042800212A0530E8070030E93D0130E707520886
:100438006702031C202A212A0A2A0130680784003F
:1004480069080318013E85000008DE0002306807CD
:10045800840069080318013E85000008DF00553054
:10046800F0000030F10003306807840069080318C1
:10047800013E8500003FF200013FF3005F08E40001
:10048800E5016408F4006508F500843184248231AC
:1004980020005408F0005530F1000030F2005F08E9
:1004A8008331912382312000DD005408FA00553051
:1004B800FB000030FC005F0884313B2482310800D7
:1004C800F30020003F08F6003E08F5003F30F30532
:1004D800F4018F2A750884007608850000087306E1
:1004E800031D772A782A792AAE2A0530F5070030C5
:1004F800F63D5208FF3EF100FF3003180030F200CD
:10050800740871067204031D8A2A8B2A8D2A023008
:10051800C12A0130F40752087402031C942A952A50
:100528006E2AAE2A75088400760885000008C12A5C
:1005380001307507840076080318013E850000081D
:10054800C12A02307507840076080318013E850029
:100558000008C12A7008F100F2017208003A031974
:10056800B62A8B2A7108003A0319962A013A031908
:100578009C2A033A0319A52A8B2A08006130F9003E
:100588008431162482312000E90069030319CD2A39
:10059800CE2ACF2A192B24306106031DD42AD52A46
:1005A8000C2B6308293A0319FE2A033A0319FE2A79
:1005B800013A0319FE2A073A0319FE2A1D3A0319BC
:1005C800FE2A033A0319FE2A013A0319FE2A5A3A67
:1005D8000319FE2A033A0319FE2A063A0319FE2ACA
:1005E8001D3A0319FE2A033A0319FE2AC63A0319CB
:1005F800FE2AFE2A6208C0390319032B042B082B94
:1006080086312E268231192B863131268231192BDB
:1006180031306106031D112B122B192B083062068D
:10062800031D172B182B192B082B080021009112DA
:100638005830F0000330F1008531EE258331210078
:100648001112A430F0000430F1008531E82583311F
:10065800183023009F0090309D0024309E00FF300A
:100668009B0002309C004230F0000630F1008531DA
:10067800FA2583312630F0000630F1008531F42563
:1006880083312A30F0000630F100863100268331AC
:100698002000C501CA01C9010830C800FD01C70111
:1006A800C6012100911608007D08203E86008701BA
:1006B800810123001D1D612B622B6D2B7D08203EBF
:1006C800860087018114200037088A0036080A004E
:1006D800833123009D1C712B722B7D2B7D08203EBE
:1006E800860087010115200035088A0034080A00B1
:1006F80083317D08203E8600870101080319852B78
:10070800862B8D2B200033088A0032080A0083319B
:10071800902B85314F2583310800F5007008F300D0
:10072800F4017308F7007408F800F601B92B710892
:1007380086007208870001087707F7007808031811
:10074800780AF8000130F1070030F23D01307802F4
:10075800003003197702031CB22BB32BB72BFF30E1
:10076800F7020030F83B0130F60775087602031CE3
:10077800BE2BBF2B9B2BF709F80977080800200030
:100788004F080319C82BC92BCF2BCF01BC01BD01C2
:10079800CE01CD01E52B4E08031DD32BD42BE52B21
:1007A8000130BC070030BD3D07303D02D030031991
:1007B8003C02031CE02BE12BE52B0130CE0001307D
:1007C800CD000130D0076F085002031CEC2BED2B35
:1007D800EF2BD001D1010800F900200048080319C7
:1007E800F62BF72BF12B2100111AFB2BFC2B002CDD
:1007F800790823009A00132C111220004A08283E79
:1008080086008701790881000130CA0708304A024A
:10081800031C0F2C102C112CCA010130C802210016
:1008280011160800200054083F39FA007908F00032
:10083800F1015530F2000030F3000830F4000030C8
:10084800F5008431842484315430F0000030F10004
:100858000030F200F3000D30F4000030F50085316F
:100868000E25843101302000CF007A0808002000CE
:10087800E100E2014C2C62087B07860000307C3DD9
:10088800870001088331F023843101302000E2071A
:1008980061086202031C512C522C3F2C7A08F0008C
:1008A8007C08F2007B08F1006108833191238431D0
:1008B8008331F02384310800200046080319652C91
:1008C800662C602C4708203E860087010108C50079
:1008D8004708A03E860087010108F0000130C707DD
:1008E80008304702031C792C7A2C7B2CC701210085
:1008F800911201302000C6022100911670080800EC
:100908007208F8007008F700972C780886008701AD
:100918000108F6000130F807770886008701760895
:1009280081000130F7070130F4020030F53B740A0A
:10093800031DA22C750A031DA22CA32C892C0800C8
:100948000830200048020318AA2CAB2CBF2C4908F9
:10095800283E86008701010823009A000130200004
:10096800C90708304902031CBA2CBB2CBC2CC9018E
:100978000130C807C12C2100111208002200900183
:100988008C018D018E01083021009000FF308C0011
:10099800C0308D00BF308E0023008D013F308C00A9
:1009A800240090018D012100951722009D01080067
:1009B800F700F001F00A7708823164228431023AA4
:1009C800031DE72CE82CEA2C0030F52C77083F397A
:1009D80081317A2184317706031DF32CF42CE82C1D
:1009E800013008008531632584318B170B17863158
:1009F8003E2684318031562084318531C0258431AA
:100A0800003A0319082D092DFE2C22000D11FE2C89
:100A180080313B287008F600182D7608860087017B
:100A2800720881000130F6070130F4020030F53B0E
:100A3800740A031D232D750A031D232D242D112D42
:100A48000800F60073082000BF007208BE00760890
:100A5800D2007508C1007408C00086311E26853191
:100A68008631102685318531D4258531080021004D
:100A78001508C03914389500063020009500063056
:100A8800C4000B118B164130F0000630F10085319F
:100A9800E225853108007D08A03E860087012300F5
:100AA800190881000130FD0708307D02031C5D2D07
:100AB8005E2D5F2DFD0101302000C607080084313E
:100AC800C22485318531B425853186311A26853190
:100AD80085313B25853183311A2385318531A72519
:100AE80085310800843160248531003A031D7D2D4D
:100AF8007E2D872D86313A268531891C842D852DBA
:100B0800872D0130882D003008000B112000440883
:100B18009500300831040319922D932D982D310832
:100B28008A0030080A0085310800F10071082000A9
:100B3800EF00003086310B2685310000013020009F
:100B4800D100D00108000630F2008630F300C23030
:100B5800F4000230F5000130853125258531080083
:100B680070302100990098012200960121001A1F77
:100B7800BE2DBF2DBA2D080020004D080319C52D24
:100B8800C62DC92DCD010130CA2D00300800200026
:100B98004608031DD02DD22D0130D32D003008007A
:100BA800C330F0000330F1008531E22585310800BB
:100BB800640080010131890BDD2D003471082000AB
:100BC800B1007008B000080071082000BB00700870
:100BD800BA00080071082000B9007008B8000800C1
:100BE80071082000B5007008B400080071082000E2
:100BF800B7007008B600080071082000B30070083C
:100C0800B2000800013401340834A8340034F0007C
:100C1800700820009500080023001D162100911679
:100C2800080023001D12210091120800163021002F
:100C3800970008002000D001D101080020004408D6
:100C48009500080023001D121D16080085314F2548
:100C58008631080022000D15080022000D11080039
:100C680020001508080023001E0808002000450879
:0E0C780008000A340800080008000800080000
:020000040001F9
:08000000FF3FFF3FFF3FFF3F00
:04000E00E43FFF1FAD
:00000001FF
