:020000040000FA
:0400000080313B28E8
:100008007E14803100308600003087008B1E0D285A
:100018000E2816280B1D1128122816288531A92507
:10002800803139280B1F19281A2839282100111E58
:100038001E281F282A282000111E232824282A28A1
:1000480039088A0038080A00803139282100911EB1
:100058002E282F2839282000911E332834283928A3
:1000680037088A0036080A0080317E10090080317E
:100078003D2886316F268031EF00FD012030840055
:100088000030850041308531FC258031A030840066
:100098000030850010308531FC2580317E1020002D
:1000A8008531162D20005303031D5B285C28512938
:1000B8005108031D6028612851290830CC005129B6
:1000C8008531EB258031003A03196B286C28792992
:1000D80014308531B925803101302000D30001303A
:1000E800CC0079298531EB258031003A03197D2828
:1000F8007E287929853196258031013A031D852886
:1001080086288A2802302000CC007929083020006F
:10011800CC0079298531EB258031003A03199528DF
:1001280096287929843180248031553A031D9D28E9
:100138009E288A2803302000CC0079298531EB25B8
:100148008031003A0319A928AA2879298431802402
:1001580080312000D40054088431FC248031003AD6
:10016800031DB728B828B9288A28F001F00A20000A
:1001780054088231DC2280312000DE005E03031D3A
:10018800C628C728D2280230F00054088231DC2261
:1001980080312000DF000430CC00792986313526F3
:1001A800803106302000CC0079298531EB2580315B
:1001B800003A0319E028E128792984318024803124
:1001C8002000EA005530EB000030EC004B086B07CC
:1001D800ED0000306C3DEE006D0886006E0887006B
:1001E8006A0881000130CB075F084B02031CFD2819
:1001F800FE287929CB010530CC0079298531EB25FA
:100208008031003A031909290A297929843180247F
:1002180080312000DD005408F0005530F100003036
:10022800F2005F088331B123803120005D06031995
:100238001E291F2920298A280730CC00792954082B
:1002480082317822803107302000CC0043088A00B0
:1002580042080A0081312000D001D101CB01D3012D
:100268005430F0000030F1000030F200F3000D309F
:10027800F4000030F50085312E25803123009E1CC6
:10028800462947294D298631302680312000CC0166
:10029800792909302000CC0079294C08EA00EB01C3
:1002A8006B08003A0319592979296A08003A031991
:1002B8006428013A03197628033A03198E28013A6B
:1002C8000319A228073A0319D928013A0319022960
:1002D800033A03192329013A03192A290F3A031962
:1002E8002F29013A0319422979290800F1007108D8
:1002F800F200F21880298229013083290030F000A9
:1003080072188729892901308A2900307006031D4F
:100318008E29902972179129721372199429962996
:10032800013097290030F000721B9B299D2901306C
:100338009E2900307006031DA229A4297217A52939
:100348007213721AA829AA290130AB290030F000CB
:10035800721BAF29B1290130B22900307006031D84
:10036800B629B8297217B9297213F219BC29BE29FE
:100378000130BF290030F000F218C329C529013027
:10038800C62900307006031DCA29CC29F217CD29C9
:10039800F213721AD029D2290130D3290030F00083
:1003A800F21BD729D9290130DA2900307006031D3C
:1003B800DE29E029F217E129F213F21AE429E629E5
:1003C8000130E7290030F000F21BEB29ED2901305C
:1003D800EE2900307006031DF229F429F217F529D9
:1003E800F2130310F21F03140318FB29FD29F21757
:1003F800FE29F213720808006130F90084313624AE
:1004080082312000E900690303190B2A0C2A0D2AFE
:10041800772A24306106031D122A132A652A302AF6
:1004280086315D268231863146268231562A8631CA
:100438005D26823186314A268231562A86315D26EA
:100448008231863142268231562A86315A268231B5
:10045800863142268231562A6308293A0319142A1A
:10046800033A0319222A063A0319142A1D3A0319D2
:10047800142A033A0319222A013A0319292A5A3A53
:1004880003191B2A033A03191B2A063A03191B2AC4
:100498001D3A03191B2A033A03191B2AC63A0319E2
:1004A800292A562A20006208C03903195C2A5D2AC5
:1004B800612A863160268231772A86316326823125
:1004C800772A31306106031D6A2A6B2A772A083099
:1004D8006206031D702A712A772A863163268231C3
:1004E80086314626823108002000E6004108E900EE
:1004F8004008E8003F30E605E701932A68088400D1
:100508006908850000086606031D8B2A8C2A8D2A37
:10051800992A0530E8070030E93D0130E70752081D
:100528006702031C982A992A822A013068078400E6
:1005380069080318013E85000008DE0002306807DC
:10054800840069080318013E85000008DF00553063
:10055800F0000030F10003306807840069080318D0
:10056800013E8500003FF200013FF3005F08E40010
:10057800E5016408F4006508F5008431A42482319B
:1005880020005408F0005530F1000030F2005F08F8
:100598008331B12382312000DD005408FA00553040
:1005A800FB000030FC005F0884315B2482310800C6
:1005B800F30020004108F6004008F5003F30F3053D
:1005C800F401072B75088400760885000008730677
:1005D800031DEF2AF02AF12A262B0530F5070030F3
:1005E800F63D5208FF3EF100FF3003180030F200DC
:1005F800740871067204031D022B032B052B0230AD
:10060800392B0130F40752087402031C0C2B0D2BF4
:10061800E62A262B75088400760885000008392B01
:1006280001307507840076080318013E850000082C
:10063800392B02307507840076080318013E8500BF
:100648000008392B7008F100F2017208003A03190A
:100658002E2B032B7108003A03190E2B013A0319AC
:10066800142B033A03191D2B032B080021009112A8
:100678007830F0000330F10086310E2683312100F6
:100688001112C430F0000430F1008631082683319D
:10069800183023009F0090309D0024309E00FF30CA
:1006A8009B0002309C007430F0000630F100863167
:1006B8001A2683315230F0000630F10086311426B4
:1006C80083315630F0000630F10086312026833120
:1006D8002000C401C901C8010830C700FD01C601D6
:1006E800C5012100911608007D08203E860087017B
:1006F800810123001D1D812B822B8D2B7D08203E1F
:10070800860087018114200035088A0034080A0011
:10071800833123009D1C912B922B9D2B7D08203E1D
:10072800860087010115200033088A0032080A0074
:1007380083317D08203E8600870101080319A52B17
:10074800A62BAD2B200031088A0030080A0083311F
:10075800B02B85316F2583310800F5007008F30050
:10076800F4017308F7007408F800F601D92B710832
:1007780086007208870001087707F70078080318D1
:10078800780AF8000130F1070030F23D01307802B4
:10079800003003197702031CD22BD32BD72BFF3041
:1007A800F7020030F83B0130F60775087602031CA3
:1007B800DE2BDF2BBB2BF709F80977080800200090
:1007C8004F080319E82BE92BEF2BCF01BE01BF011E
:1007D800CE01CD01052C4E08031DF32BF42B052C5F
:1007E8000130BE070030BF3D07303F02D03003194B
:1007F8003E02031C002C012C052C0130CE000130D8
:10080800CD000130D0076F085002031C0C2C0D2CB2
:100818000F2CD001D1010800F90020004708031966
:10082800162C172C112C2100111A1B2C1C2C202CD7
:10083800790823009A00332C111220004908283E19
:1008480086008701790881000130C907083049020C
:10085800031C2F2C302C312CC9010130C702210078
:1008680011160800200054083F39FA007908F000F2
:10087800F1015530F2000030F3000830F400003088
:10088800F5008431A42484315430F0000030F100A4
:100898000030F200F3000D30F4000030F50085312F
:1008A8002E25843101302000CF007A08080020006E
:1008B800E100E2016C2C62087B07860000307C3D79
:1008C8008700010884311024843101302000E207B8
:1008D80061086202031C712C722C5F2C7A08F000EC
:1008E8007C08F2007B08F10061088331B123843170
:1008F8008431102484310800200045080319852C10
:10090800862C802C4608203E860087010108C400FA
:100918004608A03E860087010108F0000130C6079E
:1009280008304602031C992C9A2C9B2CC6012100E6
:10093800911201302000C5022100911670080800AC
:100948007208F8007008F700B72C7808860087014D
:100958000108F6000130F807770886008701760855
:1009680081000130F7070130F4020030F53B740ACA
:10097800031DC22C750A031DC22CC32CA92C080008
:100988000830200047020318CA2CCB2CDF2C48085B
:10099800283E86008701010823009A0001302000C4
:1009A800C80708304802031CDA2CDB2CDC2CC801F1
:1009B8000130C707E12C2100111208002200900124
:1009C8008C018D018E01083021009000FF308C00D1
:1009D800C0308D00BF308E0023008D013F308C0069
:1009E800240090018D012100951722009D01080027
:1009F800F700F001F00A77088231DC228431023AEC
:100A0800031D072D082D0A2D0030152D77083F39B5
:100A180081317A2184317706031D132D142D082D79
:100A2800013008008531832585318B170B178631F6
:100A3800702685318031562085318531E025853114
:100A4800003A0319282D292D1E2D22000D111E2DC7
:100A580080313B287008F600382D7608860087011B
:100A6800720881000130F6070130F4020030F53BCE
:100A7800740A031D432D750A031D432D442D312D82
:100A88000800F60073082000C1007208C00076084C
:100A9800D2007508C3007408C20086313E2685312D
:100AA8008631302685318531F425853108002100CD
:100AB8001508C03914389500063020009500063016
:100AC800CA000B118B167330F0000630F100863126
:100AD8000226853108007D08A03E86008701230094
:100AE800190881000130FD0708307D02031C7D2DA7
:100AF8007E2D7F2DFD0101302000C50708008431BF
:100B0800E22485318531D425853186313A268531EF
:100B180085315B25853183313A2385318531C72578
:100B280085310800843180248531003A031D9D2DCC
:100B38009E2DA72D86316C268531891CA42DA52DC7
:100B4800A72D0130A82D003008000B1120004A08FD
:100B580095003A083B040319B22DB32DB82D3B0874
:100B68008A003A080A0085310800F100710820005F
:100B7800EF00003086312B2685310000013020003F
:100B8800D100D00108002630F2008630F300003092
:100B9800F4000230F5000130853145258531080023
:100BA80070302100990098012200960121001A1F37
:100BB800DE2DDF2DDA2D080020004D080319E52D64
:100BC800E62DE92DCD010130EA2D00300800200086
:100BD8004508031DF02DF22D0130F32D00300800DB
:100BE800E330F0000330F100863102268531080039
:100BF800640080010131890BFD2D0034710820004B
:100C0800BB007008BA00080071082000B90070081D
:100C1800B800080071082000B7007008B600080086
:100C280071082000B3007008B200080071082000A5
:100C3800B5007008B400080071082000B100700801
:100C4800B0000800013401340834A8340034F0003E
:100C5800700820009500080023001D162100911639
:100C6800080023001D1221009112080016302100EF
:100C7800970008002000D001D101080022008D163D
:100C88008D11080022008D118D12080022008D158B
:100C98008D12080020004A089500080023001D1244
:100CA8001D16080085316F258631080022000D16B3
:100CB800080022000D12080022000D15080022006D
:100CC8000D11080020001508080023001E08080060
:100CD8002000440808000A3408000800080008003A
:020CE800080002
:020000040001F9
:04000E00E43FFF1FAD
:00000001FF
