:020000040000FA
:0400000080313B28E8
:100008007E14803100308600003087008B1E0D285A
:100018000E2816280B1D11281228162885315F2551
:10002800803139280B1F19281A2839282100111E58
:100038001E281F282A282000111E232824282A28A1
:1000480039088A0038080A00803139282100911EB1
:100058002E282F2839282000911E332834283928A3
:1000680037088A0036080A0080317E10090080317E
:100078003D2886310D268031EF00FD0120308400B7
:100088000030850041308531B2258031A0308400B0
:100098000030850010308531B22580317E10200077
:1000A8008431CC2C20005303031D5B285C28512984
:1000B8005108031D6028612851290830CC005129B6
:1000C8008531A1258031003A03196B286C287929DC
:1000D800143085316F25803101302000D300013084
:1000E800CC0079298531A1258031003A03197D2872
:1000F8007E28792985314C258031013A031D8528D0
:1001080086288A2802302000CC007929083020006F
:10011800CC0079298531A1258031003A0319952829
:1001280096287929843136248031553A031D9D2833
:100138009E288A2803302000CC0079298531A12502
:100148008031003A0319A928AA287929843136244C
:1001580080312000D40054088431B2248031003A20
:10016800031DB728B828B9288A28F001F00A20000A
:1001780054088231642280312000DE005E03031DB2
:10018800C628C728D2280230F000540882316422D9
:1001980080312000DF000430CC0079298531EB253F
:1001A800803106302000CC0079298531A1258031A5
:1001B800003A0319E028E12879298431362480316E
:1001C8002000EA005530EB000030EC004B086B07CC
:1001D800ED0000306C3DEE006D0886006E0887006B
:1001E8006A0881000130CB075F084B02031CFD2819
:1001F800FE287929CB010530CC0079298531A12544
:100208008031003A031909290A29792984313624C9
:1002180080312000DD005408F0005530F100003036
:10022800F2005F0883313923803120005D0603190D
:100238001E291F2920298A280730CC00792954082B
:1002480082310022803107302000CC0043088A0028
:1002580042080A0081312000D001D101CB01D3012D
:100268005430F0000030F1000030F200F3000D309F
:10027800F4000030F5008431E424803123009E1C12
:10028800462947294D298531E62580312000CC01B2
:10029800792909302000CC0079294C08EA00EB01C3
:1002A8006B08003A0319592979296A08003A031991
:1002B8006428013A03197628033A03198E28013A6B
:1002C8000319A228073A0319D928013A0319022960
:1002D800033A03192329013A03192A290F3A031962
:1002E8002F29013A0319422979290800F1007108D8
:1002F800F200F21880298229013083290030F000A9
:1003080072188729892901308A2900307006031D4F
:100318008E29902972179129721372199429962996
:10032800013097290030F000721B9B299D2901306C
:100338009E2900307006031DA229A4297217A52939
:100348007213721AA829AA290130AB290030F000CB
:10035800721BAF29B1290130B22900307006031D84
:10036800B629B8297217B9297213F219BC29BE29FE
:100378000130BF290030F000F218C329C529013027
:10038800C62900307006031DCA29CC29F217CD29C9
:10039800F213721AD029D2290130D3290030F00083
:1003A800F21BD729D9290130DA2900307006031D3C
:1003B800DE29E029F217E129F213F21AE429E629E5
:1003C8000130E7290030F000F21BEB29ED2901305C
:1003D800EE2900307006031DF229F429F217F529D9
:1003E800F2130310F21F03140318FB29FD29F21757
:1003F800FE29F213720808002000E6004108E9000F
:100408004008E8003F30E605E7011B2A6808840039
:100418006908850000086606031D132A142A152A90
:10042800212A0530E8070030E93D0130E707520886
:100438006702031C202A212A0A2A0130680784003F
:1004480069080318013E85000008DE0002306807CD
:10045800840069080318013E85000008DF00553054
:10046800F0000030F10003306807840069080318C1
:10047800013E8500003FF200013FF3005F08E40001
:10048800E5016408F4006508F50084315A248231D6
:1004980020005408F0005530F1000030F2005F08E9
:1004A8008331392382312000DD005408FA005530A9
:1004B800FB000030FC005F08843111248231080001
:1004C800F30020004108F6004008F5003F30F3052E
:1004D800F4018F2A750884007608850000087306E1
:1004E800031D772A782A792AAE2A0530F5070030C5
:1004F800F63D5208FF3EF100FF3003180030F200CD
:10050800740871067204031D8A2A8B2A8D2A023008
:10051800C12A0130F40752087402031C942A952A50
:100528006E2AAE2A75088400760885000008C12A5C
:1005380001307507840076080318013E850000081D
:10054800C12A02307507840076080318013E850029
:100558000008C12A7008F100F2017208003A031974
:10056800B62A8B2A7108003A0319962A013A031908
:100578009C2A033A0319A52A8B2A08002100911204
:100588000030F0000330F1008531C42582312100AC
:1005980011127A30F0000430F1008531BE25823125
:1005A800183023009F0090309D0024309E00FF30BB
:1005B8009B0002309C001230F0000630F1008531BB
:1005C800D0258231FC30F0000530F1008531CA2594
:1005D80082310030F0000630F1008531D6258231B5
:1005E8002000C401C901C8010830C700FD01C601C7
:1005F800C5012100911608007D08203E860087016C
:10060800810123001D1D092B0A2B152B7D08203E77
:10061800860087018114200035088A0034080A0002
:10062800833123009D1C192B1A2B252B7D08203E76
:10063800860087010115200033088A0032080A0065
:1006480083317D08203E86008701010803192D2B80
:100658002E2B352B200031088A0030080A00833100
:10066800382B8531252583310800F5007008F30003
:10067800F4017308F7007408F800F601612B71089B
:1006880086007208870001087707F70078080318C2
:10069800780AF8000130F1070030F23D01307802A5
:1006A800003003197702031C5A2B5B2B5F2BFF309A
:1006B800F7020030F83B0130F60775087602031C94
:1006C800662B672B432BF709F80977080800613078
:1006D800F9008331EC2383312000E9006903031911
:1006E800762B772B782B982B24306106031D7D2BD6
:1006F8007E2B8A2B6208C0390319832B842B872B06
:1007080022000D15982B22000D11982B313061060F
:10071800031D8F2B902B982B08306206031D952BF9
:10072800962B982B22000D11080020004F08031962
:100738009E2B9F2BA52BCF01BE01BF01CE01CD0162
:10074800BB2B4E08031DA92BAA2BBB2B0130BE07C0
:100758000030BF3D07303F02D03003193E02031C72
:10076800B62BB72BBB2B0130CE000130CD000130AA
:10077800D0076F085002031CC22BC32BC52BD00116
:10078800D1010800F900200047080319CC2BCD2B14
:10079800C72B2100111AD12BD22BD62B7908230075
:1007A8009A00E92B111220004908283E860087018B
:1007B800790881000130C90708304902031CE52B7C
:1007C800E62BE72BC9010130C702210011160800EA
:1007D800200054083F39FA007908F000F10155303B
:1007E800F2000030F3000830F4000030F5008431E6
:1007F8005A2483315430F0000030F1000030F20008
:10080800F3000D30F4000030F5008431E424833126
:1008180001302000CF007A0808002000E100E20142
:10082800222C62087B07860000307C3D8700010887
:100838008331C623843101302000E2076108620257
:10084800031C272C282C152C7A08F0007C08F200B1
:100858007B08F10061088331392384318331C62351
:10086800843108002000450803193B2C3C2C362C09
:100878004608203E860087010108C4004608A03EBD
:10088800860087010108F0000130C60708304602DB
:10089800031C4F2C502C512CC60121009112013001
:1008A8002000C50221009116700808007208F8009F
:1008B8007008F7006D2C7808860087010108F6009B
:1008C8000130F80777088600870176088100013033
:1008D800F7070130F4020030F53B740A031D782C49
:1008E800750A031D782C792C5F2C0800083020002D
:1008F80047020318802C812C952C4808283E860036
:100908008701010823009A0001302000C807083039
:100918004802031C902C912C922CC8010130C70767
:10092800972C210011120800220090018C018D01E2
:100938008E01083021009000FF308C00C0308D00FF
:10094800BF308E0023008D013F308C0024009001C1
:100958008D012100951722009D010800F700F00184
:10096800F00A7708823164228431023A031DBD2CD3
:10097800BE2CC02C0030CB2C77083F3981317A212E
:1009880084317706031DC92CCA2CBE2C01300800FF
:100998008531392584318B170B1786310E26843122
:1009A800803156208431853196258431003A0319E7
:1009B800DE2CDF2CD42C22000D11D42C80313B28C6
:1009C8007008F600EE2C7608860087017208810010
:1009D8000130F6070130F4020030F53B740A031DBC
:1009E800F92C750A031DF92CFA2CE72C0800F600DF
:1009F80073082000C1007208C0007608D20075088C
:100A0800C3007408C2008531F42584318531E62598
:100A180084318531AA258431080021001508C039A0
:100A2800143895000630200095000630CA000B11D6
:100A38008B161130F0000630F1008531B82585316C
:100A480008007D08A03E8600870123001908810060
:100A58000130FD0708307D02031C332D342D352D60
:100A6800FD0101302000C507080084319824853134
:100A780085318A2585318531F025853185311125E6
:100A880085318231C222853185317D258531080045
:100A9800843136248531003A031D532D542D5D2DA4
:100AA80086310A268531891C5A2D5B2D5D2D013032
:100AB8005E2D003008000B1120004A0895003A0806
:100AC8003B040319682D692D6E2D3B088A003A08EE
:100AD8000A0085310800F10071082000EF0000309D
:100AE8008531E1258531000001302000D100D00199
:100AF8000800DC30F2008530F3006B30F40003307E
:100B0800F50001308431FB24853108007030210064
:100B1800990098012200960121001A1F942D952D05
:100B2800902D080020004D0803199B2D9C2D9F2D0A
:100B3800CD010130A02D0030080020004508031D1C
:100B4800A62DA82D0130A92D003008009930F000FD
:100B58000330F1008531B825853108006400800133
:100B68000131890BB32D003471082000BB007008D7
:100B7800BA00080071082000B9007008B800080021
:100B880071082000B7007008B6000800710820003E
:100B9800B3007008B200080071082000B5007008A2
:100BA800B400080071082000B1007008B000080007
:100BB800013401340834A8340034F00070082000EF
:100BC8009500080023001D16210091160800230037
:100BD8001D1221009112080016302100970008000C
:100BE8002000D001D101080020004A089500080023
:100BF80023001D121D1608008531252586310800A1
:100C080020001508080023001E08080020004408DA
:0E0C180008000A340800080008000800080060
:020000040001F9
:04000E00E43FFF1FAD
:00000001FF
