:0400000080313B28E8
:100008007E14803100308600003087008B1E0D285A
:100018000E2816280B1D1128122816288531A92507
:10002800803139280B1F19281A2839282100111E58
:100038001E281F282A282000111E232824282A28A1
:100048003B088A003A080A00803139282100911EAD
:100058002E282F2839282000911E332834283928A3
:1000680039088A0038080A0080317E10090080317A
:100078003D28863161268031EB00FD012030840067
:10008800003085003C3086310A268031A03084005B
:1000980000308500103086310A2680317E1020001D
:1000A8008531EE2D20004E03031D5B285C285D2959
:1000B8004C08031D602861285D290830CA005D29A5
:1000C8008531F9258031003A03196B286C28852978
:1000D8000F308531B925803101302000CE00013044
:1000E800CA0085298531F9258031003A03197D2810
:1000F8007E288529853196258031013A031D85287A
:1001080086288A2802302000CA0085290830200065
:10011800CA0085298531F9258031003A03199528C7
:1001280096288529843176248031553A031D9D28E7
:100138009E288A2803302000CA0085298531F925A0
:100148008031003A0319A928AA2885298431762400
:1001580080312000CF004F08853114258031003AC6
:10016800031DB728B828B9288A28F001F00A20000A
:100178004F088331242380312000D9005903031DFF
:10018800C628C728D2280230F0004F08833124231C
:1001980080312000DA000430CA00852986314826DB
:1001A800803106302000CA0085298531F925803143
:1001B800003A0319E028E128852984317624803122
:1001C8002000E6005030E7000030E80049086707E3
:1001D800E9000030683DEA00690886006A0887007F
:1001E800660881005A08E600E701E61BE7030130CC
:1001F800C9076708803A803C031D0429660849023C
:10020800031C0729082985292000C9010530CA00CF
:1002180085298531F9258031003A031914291529D2
:1002280085298431762480312000D8004F08F000D9
:100238005030F1000030F2005A088331F923803140
:1002480020005806031929292A292B298A2807302A
:10025800CA0085294F088231C22280310730200028
:10026800CA003F088A003E080A00813186313926D3
:1002780080312000C901CE014F30F0000030F1007C
:100288000030F200F3000D30F4000030F500853145
:100298002E25803123009E1C522953295929863145
:1002A800432680312000CA01852909302000CA0070
:1002B80085294A08E600E7016708003A0319652915
:1002C80085296608003A03196428013A0319762833
:1002D800033A03198E28013A0319A228073A031989
:1002E800D928013A03190D29033A03192E29013A8D
:1002F800031935290F3A03193A29013A03194E29E6
:10030800852908005C30F90084319A248131200065
:10031800E400362A0130C0070030C13D00304102F8
:10032800153003194002031C9A299B299D29C001F5
:10033800C1015E08E500E12922008D120D168D111C
:10034800122A22008D120D128D11122A22008D12EE
:100358000D168D11122A22008D120D128D11122ADE
:1003680022008D120D168D11122A22008D160D12E3
:100378008D11122A22008D120D168D11122A2200BB
:100388008D160D128D11122A22008D160D128D1543
:10039800122A22008D120D168D11122A22008D129A
:1003A8000D128D11122A22008D160D128D15122A8A
:1003B80022008D160D128D15122A6508FB00FC010E
:1003C8007C08003A0319E929122A7B08293A0319FB
:1003D800AF29033A0319C329013A0319DC29073A5B
:1003E8000319D2291D3A0319A529033A0319B92972
:1003F800013A0319D7295A3A0319AA29033A0319C2
:10040800BE29063A0319CD291D3A0319A029033A32
:100418000319B429C63A0319C829122A20005D080D
:10042800C0390319182A192A1C2A22000D151E2A58
:1004380022000D112000DD1E222A232A262A22004E
:100448008D14282A22008D1020005D1E2C2A2D2AAA
:10045800302A22000D143B2A22000D103B2AC0012D
:10046800C1013B2A6408013A03198E29332A08007E
:10047800F1007108F200F218422A442A0130452A94
:100488000030F0007218492A4B2A01304C2A0030FB
:100498007006031D502A522A7217532A72137219B2
:1004A800562A582A0130592A0030F000721B5D2A5A
:1004B8005F2A0130602A00307006031D642A662A0C
:1004C8007217672A7213721A6A2A6C2A01306D2A07
:1004D8000030F000721B712A732A0130742A003030
:1004E8007006031D782A7A2A72177B2A7213F2196A
:1004F8007E2A802A0130812A0030F000F218852AED
:10050800872A0130882A00307006031D8C2A8E2A1B
:10051800F2178F2AF213721A922A942A0130952A16
:100528000030F000F21B992A9B2A01309C2A0030E7
:100538007006031DA02AA22AF217A32AF213F21AA0
:10054800A62AA82A0130A92A0030F000F21BAD2AF9
:10055800AF2A0130B02A00307006031DB42AB62A2B
:10056800F217B72AF2130310F21F03140318BD2A57
:10057800BF2AF217C02AF213720808002000DF0011
:100588003D08E2003C08E1003F30DF05E001DD2ADC
:10059800610884006208850000085F06031DD52AEB
:1005A800D62AD72AE32A0530E1070030E23D013098
:1005B800E0074D086002031CE22AE32ACC2A013036
:1005C8006107840062080318013E85000008D9000D
:1005D80002306107840062080318013E85000008A4
:1005E800DA005030F0000030F10003306107840079
:1005F80062080318013E8500003FF200013FF30046
:100608005A08F400F501F41BF5038431BC24823147
:1006180020004F08F0005030F1000030F2005A0876
:100628008331F92382312000D8004F08FA00503076
:10063800FB000030FC005A08843151248231080044
:10064800F30020003D08F6003C08F5003F30F305B4
:10065800F4014F2B7508840076088500000873069E
:10066800031D372B382B392B6E2B0530F50700303F
:10067800F63D4D08FF3EF100FF3003180030F20050
:10068800740871067204031D4A2B4B2B4D2B023044
:10069800812B0130F4074D087402031C542B552B91
:1006A8002E2B6E2B75088400760885000008812B98
:1006B80001307507840076080318013E850000089C
:1006C800812B02307507840076080318013E8500E7
:1006D8000008812B7008F100F2017208003A031932
:1006E800762B4B2B7108003A0319562B013A031944
:1006F8005C2B033A0319652B4B2B08002100911240
:10070800C030F0000330F10086311C26833121000F
:100718001112DC30F0000430F100863116268331E6
:10072800183023009F0090309D0024309E00FF3039
:100738009B0002309C006330F0000630F1008631E7
:10074800282683315630F0000630F1008631222603
:1007580083315A30F0000630F10086312E2683317D
:100768002000C301C801C7010830C600FD01C5014A
:10077800C4012100911608007D08203E86008701EB
:10078800810123001D1DC92BCA2BD52B7D08203EB6
:10079800860087018114200037088A0036080A007D
:1007A800833123009D1CD92BDA2BE52B7D08203EB5
:1007B800860087010115200035088A0034080A00E0
:1007C80083317D08203E8600870101080319ED2B3F
:1007D800EE2BF52B200033088A0032080A008331FB
:1007E800F82B85316F2583310800F5007008F30078
:1007F800F4017308F7007408F800F601212C710859
:1008080086007208870001087707F7007808031840
:10081800780AF8000130F1070030F23D0130780223
:10082800003003197702031C1A2C1B2C1F2CFF30D5
:10083800F7020030F83B0130F60775087602031C12
:10084800262C272C032CF709F80977080800F9004B
:10085800200046080319312C322C2C2C2100111AA7
:10086800362C372C3B2C790823009A004E2C111279
:1008780020004808283E8600870179088100013059
:10088800C80708304802031C4A2C4B2C4C2CC801C2
:100898000130C6022100111608002000DC00DD012D
:1008A800622C5D087B07860000307C3D87000108CC
:1008B80084312B24843101302000DD075C085D027F
:1008C800031C672C682C552C7A08F0007C08F20071
:1008D8007B08F1005C088331F923843184312B24AF
:1008E800843108002000440803197B2C7C2C762CCA
:1008F8004508203E860087010108C3004508A03E40
:10090800860087010108F0000130C507083045025C
:10091800031C8F2C902C912CC501210091120130C1
:100928002000C402210091167008080020004F081A
:100938003F39FA007908F000F1015030F200003038
:10094800F3000830F4000030F5008431BC24843111
:100958004F30F0000030F1000030F200F3000D30AD
:10096800F4000030F50085312E2584317A0808001E
:100978007208F8007008F700CF2C78088600870105
:100988000108F6000130F807770886008701760825
:1009980081000130F7070130F4020030F53B740A9A
:1009A800031DDA2C750A031DDA2CDB2CC12C080078
:1009B8000830200046020318E22CE32CF72C4708E5
:1009C800283E86008701010823009A000130200094
:1009D800C70708304702031CF22CF32CF42CC7017C
:1009E8000130C607F92C21001112080022009001DD
:1009F8008C018D018E01083021009000FF308C00A1
:100A0800C0308D00BF308E0023008D013F308C0038
:100A1800240090018D012100951722009D010800F6
:100A2800F700F001F00A7708833124238531023A70
:100A3800031D1F2D202D222D00302D2D77083F3925
:100A480082313C2285317706031D2B2D2C2D202D3C
:100A5800013008007008F600382D760886008701F6
:100A6800720881000130F6070130F4020030F53BCE
:100A7800740A031D432D750A031D432D442D312D82
:100A88000800F60073082000BD007208BC00760854
:100A9800CD007508BF007408BE008631392685313F
:100AA80086314326853186310226853108002100AA
:100AB8001508C03914389500063020009500063016
:100AC800C2000B118B166230F0000630F10086313F
:100AD8001026853108007D08A03E86008701230086
:100AE800190881000130FD0708307D02031C7D2DA7
:100AF8007E2D7F2DFD0101302000C40708008431C0
:100B0800FA2485318531E2258531863152268531B1
:100B180085315B2585318331822385318531C8252F
:100B280085310800843176248531003A031D9D2DD6
:100B38009E2DA72D86315E268531891CA42DA52DD5
:100B4800A72D0130A82D003008000B112000420805
:100B58009500300831040319B22DB32DB82D310892
:100B68008A0030080A0085310800F1007108200069
:100B7800EB00003086313E2685312000CB01000095
:100B880001302000CC0008003430F2008630F30039
:100B98008630F4000130F500013085314525853176
:100BA800080001302000CB076B084B02031CDD2D29
:100BB800DE2DE12D86314D2685310800703021006B
:100BC800990098012200960121001A1FEC2DED2DA5
:100BD800E82D08008531832585318B170B17803167
:100BE80056208531F32D80313B2820004408031D11
:100BF800FE2D002E0130012E00300800D530F00007
:100C08000530F10086311026863108006400800125
:100C18000131890B0B2E003471082000B1007008D7
:100C2800B000080071082000BB007008BA00080076
:100C380071082000B9007008B80008007108200089
:100C4800B5007008B400080071082000B7007008EB
:100C5800B600080071082000B3007008B200080050
:100C6800013401340834A834003400002000CB01DA
:100C7800CC010800F000700820009500080023004F
:100C88001D1621009116080023001D122100911243
:100C9800080000002000CB01CC010800163021001C
:100CA8009700080023001D121D16080085316F25C6
:100CB80086310800200043080800143408000800A2
:020000040001F9
:08000000FF3FFF3FFF3FFF3F00
:04000E00E43FFF1FAD
:00000001FF
